{
  "contractName": "Contract",
  "abi": [
    {
      "inputs": [],
      "stateMutability": "nonpayable",
      "type": "constructor"
    },
    {
      "inputs": [
        {
          "internalType": "uint256",
          "name": "",
          "type": "uint256"
        }
      ],
      "name": "Dr_ids",
      "outputs": [
        {
          "internalType": "address",
          "name": "",
          "type": "address"
        }
      ],
      "stateMutability": "view",
      "type": "function",
      "constant": true
    },
    {
      "inputs": [
        {
          "internalType": "uint256",
          "name": "",
          "type": "uint256"
        }
      ],
      "name": "Patient_ids",
      "outputs": [
        {
          "internalType": "address",
          "name": "",
          "type": "address"
        }
      ],
      "stateMutability": "view",
      "type": "function",
      "constant": true
    },
    {
      "inputs": [],
      "name": "getAdmin",
      "outputs": [
        {
          "internalType": "address",
          "name": "",
          "type": "address"
        }
      ],
      "stateMutability": "view",
      "type": "function",
      "constant": true
    },
    {
      "inputs": [],
      "name": "isAdmin",
      "outputs": [
        {
          "internalType": "bool",
          "name": "",
          "type": "bool"
        }
      ],
      "stateMutability": "view",
      "type": "function",
      "constant": true
    },
    {
      "inputs": [
        {
          "internalType": "address",
          "name": "_newdr",
          "type": "address"
        }
      ],
      "name": "addDoctor",
      "outputs": [],
      "stateMutability": "nonpayable",
      "type": "function"
    },
    {
      "inputs": [
        {
          "internalType": "address",
          "name": "dr_id",
          "type": "address"
        },
        {
          "internalType": "string",
          "name": "_drInfo_hash",
          "type": "string"
        }
      ],
      "name": "addDrInfo",
      "outputs": [],
      "stateMutability": "nonpayable",
      "type": "function"
    },
    {
      "inputs": [],
      "name": "getAllDrs",
      "outputs": [
        {
          "internalType": "address[]",
          "name": "",
          "type": "address[]"
        }
      ],
      "stateMutability": "view",
      "type": "function",
      "constant": true
    },
    {
      "inputs": [
        {
          "internalType": "address",
          "name": "_id",
          "type": "address"
        }
      ],
      "name": "getDr",
      "outputs": [
        {
          "internalType": "string",
          "name": "",
          "type": "string"
        }
      ],
      "stateMutability": "view",
      "type": "function",
      "constant": true
    },
    {
      "inputs": [
        {
          "internalType": "address",
          "name": "id",
          "type": "address"
        }
      ],
      "name": "isDr",
      "outputs": [
        {
          "internalType": "string",
          "name": "",
          "type": "string"
        }
      ],
      "stateMutability": "view",
      "type": "function",
      "constant": true
    },
    {
      "inputs": [
        {
          "internalType": "address",
          "name": "id",
          "type": "address"
        }
      ],
      "name": "isPat",
      "outputs": [
        {
          "internalType": "string",
          "name": "",
          "type": "string"
        }
      ],
      "stateMutability": "view",
      "type": "function",
      "constant": true
    }
  ],
  "bytecode": "0x6080604052600b80546001600160a01b031916734c0e13c6f4fb72c97c954f76902d0be2a2e9b36c17905534801561003657600080fd5b5060088054600b546001600160a01b03166001600160a01b0319918216339092169190911781179091556100779060009061007c602090811b61047f17901c565b610180565b61008682826100fd565b156100d85760405162461bcd60e51b815260206004820152601f60248201527f526f6c65733a206163636f756e7420616c72656164792068617320726f6c650060448201526064015b60405180910390fd5b6001600160a01b0316600090815260209190915260409020805460ff19166001179055565b60006001600160a01b0382166101605760405162461bcd60e51b815260206004820152602260248201527f526f6c65733a206163636f756e7420697320746865207a65726f206164647265604482015261737360f01b60648201526084016100cf565b506001600160a01b03166000908152602091909152604090205460ff1690565b6108598061018f6000396000f3fe608060405234801561001057600080fd5b506004361061009e5760003560e01c8063720d5b4b11610066578063720d5b4b14610125578063b6db75a014610145578063be9568731461015d578063c979783f14610170578063d4fd45c41461018357600080fd5b806317335a95146100a35780631da3e2dc146100b85780632f4a4dcb146100d65780634780468f146101015780636e9960c314610114575b600080fd5b6100b66100b1366004610649565b610196565b005b6100c061025a565b6040516100cd919061070b565b60405180910390f35b6100e96100e4366004610758565b6102bc565b6040516001600160a01b0390911681526020016100cd565b6100b661010f366004610771565b6102e6565b6008546001600160a01b03166100e9565b610138610133366004610771565b61033c565b6040516100cd9190610793565b61014d6103a5565b60405190151581526020016100cd565b61013861016b366004610771565b6103b6565b6100e961017e366004610758565b6103c3565b610138610191366004610771565b6103d3565b6101a16000336104fb565b6101e35760405162461bcd60e51b815260206004820152600e60248201526d27b7363c902337b91020b236b4b760911b60448201526064015b60405180910390fd5b3360009081526003602090815260409091208251909161020791839185019061057e565b5060058054600181810183556000929092527f036b6384b5eca791c62761152d0c79bb0604c104a5fb6f4eb0703f3154bb3db00180546001600160a01b03191633179055610255908461047f565b505050565b606060058054806020026020016040519081016040528092919081815260200182805480156102b257602002820191906000526020600020905b81546001600160a01b03168152600190910190602001808311610294575b5050505050905090565b600681815481106102cc57600080fd5b6000918252602090912001546001600160a01b0316905081565b6102f16000336104fb565b61032e5760405162461bcd60e51b815260206004820152600e60248201526d27b7363c902337b91020b236b4b760911b60448201526064016101da565b61033960018261047f565b50565b60606103496002836104fb565b6103885760405162461bcd60e51b815260206004820152601060248201526f4f6e6c7920666f7220446f63746f727360801b60448201526064016101da565b50506040805180820190915260018152603160f81b602082015290565b60006103b181336104fb565b905090565b60606103496001836104fb565b600581815481106102cc57600080fd5b6001600160a01b03811660009081526003602052604090208054606091906103fa906107e8565b80601f0160208091040260200160405190810160405280929190818152602001828054610426906107e8565b80156104735780601f1061044857610100808354040283529160200191610473565b820191906000526020600020905b81548152906001019060200180831161045657829003601f168201915b50505050509050919050565b61048982826104fb565b156104d65760405162461bcd60e51b815260206004820152601f60248201527f526f6c65733a206163636f756e7420616c72656164792068617320726f6c650060448201526064016101da565b6001600160a01b0316600090815260209190915260409020805460ff19166001179055565b60006001600160a01b03821661055e5760405162461bcd60e51b815260206004820152602260248201527f526f6c65733a206163636f756e7420697320746865207a65726f206164647265604482015261737360f01b60648201526084016101da565b506001600160a01b03166000908152602091909152604090205460ff1690565b82805461058a906107e8565b90600052602060002090601f0160209004810192826105ac57600085556105f2565b82601f106105c557805160ff19168380011785556105f2565b828001600101855582156105f2579182015b828111156105f25782518255916020019190600101906105d7565b506105fe929150610602565b5090565b5b808211156105fe5760008155600101610603565b80356001600160a01b038116811461062e57600080fd5b919050565b634e487b7160e01b600052604160045260246000fd5b6000806040838503121561065c57600080fd5b61066583610617565b9150602083013567ffffffffffffffff8082111561068257600080fd5b818501915085601f83011261069657600080fd5b8135818111156106a8576106a8610633565b604051601f8201601f19908116603f011681019083821181831017156106d0576106d0610633565b816040528281528860208487010111156106e957600080fd5b8260208601602083013760006020848301015280955050505050509250929050565b6020808252825182820181905260009190848201906040850190845b8181101561074c5783516001600160a01b031683529284019291840191600101610727565b50909695505050505050565b60006020828403121561076a57600080fd5b5035919050565b60006020828403121561078357600080fd5b61078c82610617565b9392505050565b600060208083528351808285015260005b818110156107c0578581018301518582016040015282016107a4565b818111156107d2576000604083870101525b50601f01601f1916929092016040019392505050565b600181811c908216806107fc57607f821691505b6020821081141561081d57634e487b7160e01b600052602260045260246000fd5b5091905056fea2646970667358221220eed6746dddf2d3f12f6ba6097ad0992d064b6e5c6baf7da8626cccb36cc7fd7f64736f6c634300080b0033",
  "immutableReferences": {},
  "source": "// SPDX-License-Identifier: MIT\r\npragma solidity >=0.4.21;\r\n\r\nimport \"./Roles.sol\";\r\n\r\ncontract Contract {\r\n    using Roles for Roles.Role;\r\n\r\n    Roles.Role private admin;\r\n    Roles.Role private doctor;\r\n    Roles.Role private patient;\r\n\r\n    struct Doctor {\r\n        string drHash;\r\n    }\r\n\r\n    struct Patient {\r\n        string patHash;\r\n    }\r\n\r\n    mapping(address => Doctor) Doctors;\r\n    mapping(address => Patient) Patients;\r\n\r\n    address[] public Dr_ids;\r\n    address[] public Patient_ids;\r\n\r\n    address accountId;\r\n    address admin_id;\r\n    address get_patient_id;\r\n    address get_dr_id;\r\n\r\n\taddress msgsender = 0x4c0e13C6F4fB72c97c954f76902d0bE2A2E9b36C;\r\n\r\n    constructor() {\r\n        admin_id = msg.sender;\r\n\t\t\r\n\t\tadmin_id = msgsender;\r\n\t\t\r\n        admin.add(admin_id);\r\n    }\r\n\r\n    //get Admin\r\n\r\n    function getAdmin() public view returns (address) {\r\n        return admin_id;\r\n    }\r\n\r\n    function isAdmin() public view returns (bool) {\r\n        return admin.has(msg.sender);\r\n    }\r\n\r\n    //Add Doctor\r\n\r\n    function addDoctor(address _newdr) public {\r\n        require(admin.has(msg.sender), \"Only For Admin\");\r\n        doctor.add(_newdr);\r\n    }\r\n\r\n    function addDrInfo(address dr_id, string memory _drInfo_hash) public {\r\n        require(admin.has(msg.sender), \"Only For Admin\");\r\n\r\n        Doctor storage drInfo = Doctors[msg.sender];\r\n        drInfo.drHash = _drInfo_hash;\r\n        Dr_ids.push(msg.sender);\r\n\r\n        doctor.add(dr_id);\r\n    }\r\n\r\n    function getAllDrs() public view returns (address[] memory) {\r\n        return Dr_ids;\r\n    }\r\n\r\n    function getDr(address _id) public view returns (string memory) {\r\n        return (Doctors[_id].drHash);\r\n    }\r\n\r\n    // check is Doctor\r\n\r\n    function isDr(address id) public view returns (string memory) {\r\n        require(doctor.has(id), \"Only for Doctors\");\r\n        return \"1\";\r\n    }\r\n\r\n    // Check is Patient\r\n\r\n    function isPat(address id) public view returns (string memory) {\r\n        require(patient.has(id), \"Only for Doctors\");\r\n        return \"1\";\r\n    }\r\n\r\n    /*\r\n        Modifiers\r\n    */\r\n\r\n    modifier onlyAdmin() {\r\n        require(admin.has(msg.sender) == true, \"Only Admin Can Do That\");\r\n        _;\r\n    }\r\n    modifier onlyDoctor() {\r\n        require(doctor.has(msg.sender) == true, \"Only Doctor Can Do That\");\r\n        _;\r\n    }\r\n    modifier onlyPatient() {\r\n        require(patient.has(msg.sender) == true, \"Only Admin Can Do That\");\r\n        _;\r\n    }\r\n}\r\n",
  "sourcePath": "C:\\Users\\ngkaa\\OneDrive\\Documents\\GitHub\\blockchainForHealthcare20221001\\Blockchain For Healthcare 20221001\\contracts\\Contract.sol",
  "compiler": {
    "name": "solc",
    "version": "0.8.11+commit.d7f03943.Emscripten.clang"
  },
  "schemaVersion": "3.4.11",
  "updatedAt": "2023-02-06T14:12:00.989Z",
  "networkType": "ethereum",
  "devdoc": {
    "kind": "dev",
    "methods": {},
    "version": 1
  },
  "userdoc": {
    "kind": "user",
    "methods": {},
    "version": 1
  }
}