{
  "contractName": "Contract",
  "abi": [
    {
      "inputs": [],
      "stateMutability": "nonpayable",
      "type": "constructor"
    },
    {
      "inputs": [
        {
          "internalType": "uint256",
          "name": "",
          "type": "uint256"
        }
      ],
      "name": "Dr_ids",
      "outputs": [
        {
          "internalType": "address",
          "name": "",
          "type": "address"
        }
      ],
      "stateMutability": "view",
      "type": "function",
      "constant": true
    },
    {
      "inputs": [
        {
          "internalType": "uint256",
          "name": "",
          "type": "uint256"
        }
      ],
      "name": "MedRecord_ids",
      "outputs": [
        {
          "internalType": "address",
          "name": "",
          "type": "address"
        }
      ],
      "stateMutability": "view",
      "type": "function",
      "constant": true
    },
    {
      "inputs": [
        {
          "internalType": "uint256",
          "name": "",
          "type": "uint256"
        }
      ],
      "name": "Patient_ids",
      "outputs": [
        {
          "internalType": "address",
          "name": "",
          "type": "address"
        }
      ],
      "stateMutability": "view",
      "type": "function",
      "constant": true
    },
    {
      "inputs": [],
      "name": "getAdmin",
      "outputs": [
        {
          "internalType": "address",
          "name": "",
          "type": "address"
        }
      ],
      "stateMutability": "view",
      "type": "function",
      "constant": true
    },
    {
      "inputs": [],
      "name": "isAdmin",
      "outputs": [
        {
          "internalType": "bool",
          "name": "",
          "type": "bool"
        }
      ],
      "stateMutability": "view",
      "type": "function",
      "constant": true
    },
    {
      "inputs": [
        {
          "internalType": "address",
          "name": "_newdr",
          "type": "address"
        }
      ],
      "name": "addDoctor",
      "outputs": [],
      "stateMutability": "nonpayable",
      "type": "function"
    },
    {
      "inputs": [
        {
          "internalType": "address",
          "name": "_newps",
          "type": "address"
        }
      ],
      "name": "addPatient",
      "outputs": [],
      "stateMutability": "nonpayable",
      "type": "function"
    },
    {
      "inputs": [
        {
          "internalType": "address",
          "name": "_newmr",
          "type": "address"
        }
      ],
      "name": "addMedRecord",
      "outputs": [],
      "stateMutability": "nonpayable",
      "type": "function"
    },
    {
      "inputs": [
        {
          "internalType": "address",
          "name": "dr_id",
          "type": "address"
        },
        {
          "internalType": "string",
          "name": "_drInfo_hash",
          "type": "string"
        }
      ],
      "name": "addDrInfo",
      "outputs": [],
      "stateMutability": "nonpayable",
      "type": "function"
    },
    {
      "inputs": [
        {
          "internalType": "address",
          "name": "pat_id",
          "type": "address"
        },
        {
          "internalType": "string",
          "name": "_patInfo_hash",
          "type": "string"
        }
      ],
      "name": "addPatientInfo",
      "outputs": [],
      "stateMutability": "nonpayable",
      "type": "function"
    },
    {
      "inputs": [
        {
          "internalType": "address",
          "name": "mr_id",
          "type": "address"
        },
        {
          "internalType": "string",
          "name": "_mrInfo_hash",
          "type": "string"
        }
      ],
      "name": "addMedRecordInfo",
      "outputs": [],
      "stateMutability": "nonpayable",
      "type": "function"
    },
    {
      "inputs": [],
      "name": "getAllDrs",
      "outputs": [
        {
          "internalType": "address[]",
          "name": "",
          "type": "address[]"
        }
      ],
      "stateMutability": "view",
      "type": "function",
      "constant": true
    },
    {
      "inputs": [],
      "name": "getAllPatientIds",
      "outputs": [
        {
          "internalType": "address[]",
          "name": "",
          "type": "address[]"
        }
      ],
      "stateMutability": "view",
      "type": "function",
      "constant": true
    },
    {
      "inputs": [],
      "name": "getAllMedRecordIds",
      "outputs": [
        {
          "internalType": "address[]",
          "name": "",
          "type": "address[]"
        }
      ],
      "stateMutability": "view",
      "type": "function",
      "constant": true
    },
    {
      "inputs": [
        {
          "internalType": "address",
          "name": "_id",
          "type": "address"
        }
      ],
      "name": "getDr",
      "outputs": [
        {
          "internalType": "string",
          "name": "",
          "type": "string"
        }
      ],
      "stateMutability": "view",
      "type": "function",
      "constant": true
    },
    {
      "inputs": [
        {
          "internalType": "address",
          "name": "_id",
          "type": "address"
        }
      ],
      "name": "getPatient",
      "outputs": [
        {
          "internalType": "string",
          "name": "",
          "type": "string"
        }
      ],
      "stateMutability": "view",
      "type": "function",
      "constant": true
    },
    {
      "inputs": [
        {
          "internalType": "address",
          "name": "_id",
          "type": "address"
        }
      ],
      "name": "getMedRecord",
      "outputs": [
        {
          "internalType": "string",
          "name": "",
          "type": "string"
        }
      ],
      "stateMutability": "view",
      "type": "function",
      "constant": true
    },
    {
      "inputs": [
        {
          "internalType": "address",
          "name": "id",
          "type": "address"
        }
      ],
      "name": "isDr",
      "outputs": [
        {
          "internalType": "string",
          "name": "",
          "type": "string"
        }
      ],
      "stateMutability": "view",
      "type": "function",
      "constant": true
    },
    {
      "inputs": [
        {
          "internalType": "address",
          "name": "id",
          "type": "address"
        }
      ],
      "name": "isPat",
      "outputs": [
        {
          "internalType": "string",
          "name": "",
          "type": "string"
        }
      ],
      "stateMutability": "view",
      "type": "function",
      "constant": true
    }
  ],
  "bytecode": "0x6080604052600f80546001600160a01b031916734c0e13c6f4fb72c97c954f76902d0be2a2e9b36c17905534801561003657600080fd5b50600b8054600f546001600160a01b03166001600160a01b0319918216339092169190911781179091556100779060009061007c602090811b61083f17901c565b610180565b61008682826100fd565b156100d85760405162461bcd60e51b815260206004820152601f60248201527f526f6c65733a206163636f756e7420616c72656164792068617320726f6c650060448201526064015b60405180910390fd5b6001600160a01b0316600090815260209190915260409020805460ff19166001179055565b60006001600160a01b0382166101605760405162461bcd60e51b815260206004820152602260248201527f526f6c65733a206163636f756e7420697320746865207a65726f206164647265604482015261737360f01b60648201526084016100cf565b506001600160a01b03166000908152602091909152604090205460ff1690565b610c418061018f6000396000f3fe608060405234801561001057600080fd5b50600436106101215760003560e01c80636e9960c3116100ad578063c979783f11610071578063c979783f1461025a578063cff0572d1461026d578063d0187a0514610275578063d4fd45c414610288578063d51fd0611461029b57600080fd5b80636e9960c3146101f8578063720d5b4b14610209578063b5368e201461021c578063b6db75a01461022f578063be9568731461024757600080fd5b80632f4a4dcb116100f45780632f4a4dcb1461018c5780633c2136bf1461019f5780634635bec3146101b25780634780468f146101d25780636d263ceb146101e557600080fd5b806317335a95146101265780631da3e2dc1461013b578063242c572114610159578063243f853b14610184575b600080fd5b610139610134366004610a09565b6102ae565b005b610143610367565b6040516101509190610acb565b60405180910390f35b61016c610167366004610b18565b6103c9565b6040516001600160a01b039091168152602001610150565b6101436103f3565b61016c61019a366004610b18565b610453565b6101396101ad366004610b31565b610463565b6101c56101c0366004610b31565b610498565b6040516101509190610b53565b6101396101e0366004610b31565b610544565b6101396101f3366004610b31565b610576565b600b546001600160a01b031661016c565b6101c5610217366004610b31565b6105a8565b6101c561022a366004610b31565b610611565b610237610638565b6040519015158152602001610150565b6101c5610255366004610b31565b610649565b61016c610268366004610b18565b610656565b610143610666565b610139610283366004610a09565b6106c6565b6101c5610296366004610b31565b610771565b6101396102a9366004610a09565b610798565b6102b96000336108bb565b6102de5760405162461bcd60e51b81526004016102d590610ba8565b60405180910390fd5b6001600160a01b03821660009081526004602090815260409091208251909161030b91839185019061093e565b5060078054600180820183556000929092527fa66cc928b5edb82af9bd49922954155ab7b0942694bea4ce44661d9a8736c6880180546001600160a01b0319166001600160a01b038616179055610362908461083f565b505050565b606060078054806020026020016040519081016040528092919081815260200182805480156103bf57602002820191906000526020600020905b81546001600160a01b031681526001909101906020018083116103a1575b5050505050905090565b600981815481106103d957600080fd5b6000918252602090912001546001600160a01b0316905081565b606060098054806020026020016040519081016040528092919081815260200182805480156103bf576020028201919060005260206000209081546001600160a01b031681526001909101906020018083116103a1575050505050905090565b600881815481106103d957600080fd5b61046e6000336108bb565b61048a5760405162461bcd60e51b81526004016102d590610ba8565b61049560038261083f565b50565b6001600160a01b03811660009081526006602052604090208054606091906104bf90610bd0565b80601f01602080910402602001604051908101604052809291908181526020018280546104eb90610bd0565b80156105385780601f1061050d57610100808354040283529160200191610538565b820191906000526020600020905b81548152906001019060200180831161051b57829003601f168201915b50505050509050919050565b61054f6000336108bb565b61056b5760405162461bcd60e51b81526004016102d590610ba8565b61049560018261083f565b6105816000336108bb565b61059d5760405162461bcd60e51b81526004016102d590610ba8565b61049560028261083f565b60606105b56002836108bb565b6105f45760405162461bcd60e51b815260206004820152601060248201526f4f6e6c7920666f7220446f63746f727360801b60448201526064016102d5565b50506040805180820190915260018152603160f81b602082015290565b6001600160a01b03811660009081526005602052604090208054606091906104bf90610bd0565b600061064481336108bb565b905090565b60606105b56001836108bb565b600781815481106103d957600080fd5b606060088054806020026020016040519081016040528092919081815260200182805480156103bf576020028201919060005260206000209081546001600160a01b031681526001909101906020018083116103a1575050505050905090565b6106d16000336108bb565b6106ed5760405162461bcd60e51b81526004016102d590610ba8565b6001600160a01b03821660009081526006602090815260409091208251909161071a91839185019061093e565b50600980546001810182556000919091527f6e1540171b6c0c960b71a7020d9f60077f6af931a8bbf590da0223dacf75c7af0180546001600160a01b0319166001600160a01b03851617905561036260038461083f565b6001600160a01b03811660009081526004602052604090208054606091906104bf90610bd0565b6107a36000336108bb565b6107bf5760405162461bcd60e51b81526004016102d590610ba8565b6001600160a01b0382166000908152600560209081526040909120825190916107ec91839185019061093e565b50600880546001810182556000919091527ff3f7a9fe364faab93b216da50a3214154f22a0a2b415b23a84c8169e8b636ee30180546001600160a01b0319166001600160a01b0385161790556103626002845b61084982826108bb565b156108965760405162461bcd60e51b815260206004820152601f60248201527f526f6c65733a206163636f756e7420616c72656164792068617320726f6c650060448201526064016102d5565b6001600160a01b0316600090815260209190915260409020805460ff19166001179055565b60006001600160a01b03821661091e5760405162461bcd60e51b815260206004820152602260248201527f526f6c65733a206163636f756e7420697320746865207a65726f206164647265604482015261737360f01b60648201526084016102d5565b506001600160a01b03166000908152602091909152604090205460ff1690565b82805461094a90610bd0565b90600052602060002090601f01602090048101928261096c57600085556109b2565b82601f1061098557805160ff19168380011785556109b2565b828001600101855582156109b2579182015b828111156109b2578251825591602001919060010190610997565b506109be9291506109c2565b5090565b5b808211156109be57600081556001016109c3565b80356001600160a01b03811681146109ee57600080fd5b919050565b634e487b7160e01b600052604160045260246000fd5b60008060408385031215610a1c57600080fd5b610a25836109d7565b9150602083013567ffffffffffffffff80821115610a4257600080fd5b818501915085601f830112610a5657600080fd5b813581811115610a6857610a686109f3565b604051601f8201601f19908116603f01168101908382118183101715610a9057610a906109f3565b81604052828152886020848701011115610aa957600080fd5b8260208601602083013760006020848301015280955050505050509250929050565b6020808252825182820181905260009190848201906040850190845b81811015610b0c5783516001600160a01b031683529284019291840191600101610ae7565b50909695505050505050565b600060208284031215610b2a57600080fd5b5035919050565b600060208284031215610b4357600080fd5b610b4c826109d7565b9392505050565b600060208083528351808285015260005b81811015610b8057858101830151858201604001528201610b64565b81811115610b92576000604083870101525b50601f01601f1916929092016040019392505050565b6020808252600e908201526d27b7363c902337b91020b236b4b760911b604082015260600190565b600181811c90821680610be457607f821691505b60208210811415610c0557634e487b7160e01b600052602260045260246000fd5b5091905056fea264697066735822122059d2a676e8065837f26ddcd9907e9b60d9c37a964a1c29e17821495a53471cc664736f6c634300080b0033",
  "immutableReferences": {},
  "source": "// SPDX-License-Identifier: MIT\r\npragma solidity >=0.4.21;\r\n\r\nimport \"./Roles.sol\";\r\n\r\ncontract Contract {\r\n    using Roles for Roles.Role;\r\n\r\n    Roles.Role private admin;\r\n    Roles.Role private doctor;\r\n    Roles.Role private patient;\r\n    Roles.Role private medRecord;\r\n\r\n    struct Doctor {\r\n        string drHash;\r\n    }\r\n\r\n    struct Patient {\r\n        string patHash;\r\n    }\r\n\t\r\n\tstruct MedRecord {\r\n        string mrHash;\r\n    }\r\n\r\n    mapping(address => Doctor) Doctors;\r\n    mapping(address => Patient) Patients;\r\n    mapping(address => MedRecord) MedRecords;\r\n\r\n    address[] public Dr_ids;\r\n    address[] public Patient_ids;\r\n    address[] public MedRecord_ids;\r\n\r\n    address accountId;\r\n    address admin_id;\r\n    address get_patient_id;\r\n    address get_dr_id;\r\n    address get_mr_id;\r\n\r\n\taddress msgsender = 0x4c0e13C6F4fB72c97c954f76902d0bE2A2E9b36C;\r\n\r\n    constructor() {\r\n        admin_id = msg.sender;\t\t\r\n\r\n\t\tadmin_id = msgsender;\r\n\r\n        admin.add(admin_id);\r\n    }\r\n\r\n    //get Admin\r\n\r\n    function getAdmin() public view returns (address) {\r\n        return admin_id;\r\n    }\r\n\r\n    function isAdmin() public view returns (bool) {\r\n        return admin.has(msg.sender);\r\n    }\r\n\r\n    //Add Doctor\r\n\r\n    function addDoctor(address _newdr) public {\r\n        require(admin.has(msg.sender), \"Only For Admin\");\r\n        doctor.add(_newdr);\r\n    }\r\n\r\n    function addPatient(address _newps) public {\r\n        require(admin.has(msg.sender), \"Only For Admin\");\r\n        patient.add(_newps);\r\n    }\r\n\t\r\n\tfunction addMedRecord(address _newmr) public {\r\n        require(admin.has(msg.sender), \"Only For Admin\");\r\n        medRecord.add(_newmr);\r\n    }\r\n\r\n    // dr_id is not needed here and should not be required during creation\r\n    // dr_id is an address that should be automatically generated when the dr is first saved\r\n    function addDrInfo(address dr_id, string memory _drInfo_hash) public {\r\n        require(admin.has(msg.sender), \"Only For Admin\");\r\n\r\n        Doctor storage drInfo = Doctors[dr_id];\r\n        drInfo.drHash = _drInfo_hash;\r\n\r\n        // The new address (dr_id) should be pushed into Dr_ids storage to retrieve the doctors back\r\n        Dr_ids.push(dr_id);\r\n        doctor.add(dr_id);\r\n    }\r\n\r\n    function addPatientInfo(address pat_id, string memory _patInfo_hash) public {\r\n        require(admin.has(msg.sender), \"Only For Admin\");\r\n\r\n        Patient storage patInfo = Patients[pat_id];\r\n        patInfo.patHash = _patInfo_hash;\r\n\r\n        // The new address (dr_id) should be pushed into Dr_ids storage to retrieve the doctors back\r\n        Patient_ids.push(pat_id);\r\n        patient.add(pat_id);\r\n    }\r\n\t\r\n\tfunction addMedRecordInfo(address mr_id, string memory _mrInfo_hash) public {\r\n        require(admin.has(msg.sender), \"Only For Admin\");\r\n\r\n        MedRecord storage mrInfo = MedRecords[mr_id];\r\n        mrInfo.mrHash = _mrInfo_hash;\r\n\r\n        // The new address (dr_id) should be pushed into Dr_ids storage to retrieve the doctors back\r\n        MedRecord_ids.push(mr_id);\r\n        medRecord.add(mr_id);\r\n    }\r\n\r\n    function getAllDrs() public view returns (address[] memory) {\r\n        // This will return the addresses pointing to the doctors\r\n        return Dr_ids;\r\n    }\r\n\r\n    function getAllPatientIds() public view returns (address[] memory) {\r\n        // This will return the addresses pointing to the patients\r\n        return Patient_ids;\r\n    }\r\n\r\n\tfunction getAllMedRecordIds() public view returns (address[] memory) {\r\n        // This will return the addresses pointing to the medical records\r\n        return MedRecord_ids;\r\n    }\r\n\r\n    function getDr(address _id) public view returns (string memory) {\r\n        return (Doctors[_id].drHash);\r\n    }\r\n\r\n    function getPatient(address _id) public view returns (string memory) {\r\n        return (Patients[_id].patHash);\r\n    }\r\n\t\r\n\tfunction getMedRecord(address _id) public view returns (string memory) {\r\n        return (MedRecords[_id].mrHash);\r\n    }\r\n\r\n    // check is Doctor\r\n\r\n    function isDr(address id) public view returns (string memory) {\r\n        require(doctor.has(id), \"Only for Doctors\");\r\n        return \"1\";\r\n    }\r\n\r\n    // Check is Patient\r\n\r\n    function isPat(address id) public view returns (string memory) {\r\n        require(patient.has(id), \"Only for Doctors\");\r\n        return \"1\";\r\n    }\r\n\r\n    /*\r\n        Modifiers\r\n    */\r\n\r\n    modifier onlyAdmin() {\r\n        require(admin.has(msg.sender) == true, \"Only Admin Can Do That\");\r\n        _;\r\n    }\r\n    modifier onlyDoctor() {\r\n        require(doctor.has(msg.sender) == true, \"Only Doctor Can Do That\");\r\n        _;\r\n    }\r\n    modifier onlyPatient() {\r\n        require(patient.has(msg.sender) == true, \"Only Admin Can Do That\");\r\n        _;\r\n    }\r\n}\r\n",
  "sourcePath": "C:\\Users\\ngkaa\\OneDrive\\Documents\\GitHub\\blockchainForHealthcare20221001\\Blockchain For Healthcare 20221001\\contracts\\Contract.sol",
  "compiler": {
    "name": "solc",
    "version": "0.8.11+commit.d7f03943.Emscripten.clang"
  },
  "schemaVersion": "3.4.11",
  "updatedAt": "2023-02-10T16:59:14.323Z",
  "networkType": "ethereum",
  "devdoc": {
    "kind": "dev",
    "methods": {},
    "version": 1
  },
  "userdoc": {
    "kind": "user",
    "methods": {},
    "version": 1
  }
}